S01900006373616E743031395F46696E616C4C61622E7372656300
S113000085C00000A0C000009EC000009CC000008D
S11300109AC0000098C0000096C0000094C0000080
S113002092C0000090C000008EC000008CC0000090
S11300308AC00000EBC0000086C0000084C000003D
S113004082C0000080C000007EC000007CC00000B0
S11300507AC0000078C0000076C0000074C00000C0
S113006072C0000070C000006EC000006CC00000D0
S11300706AC0000068C0000066C0000064C00000E0
S113008062C0000060C000005EC000006D01770126
S113009038029801C301F001F701100238024B0243
S11300A05702A002E80209032021232527292A2C2C
S11300B02E3032333537393B3C3E40424445474984
S11300C04B4D4E5052545657595B5D5F60626466A7
S11300D068696B6D6F71727476787A7B7D7F8183CA
S11300E08486888A8C8D8F91939596989A9C9E9FEE
S11300F0A1A3A5A7A8AAACAEB0B1B3B5B7B9BABC11
S1130100BEC0C2C3C5C7C9CBCCCED0D211241FBE7A
S1130110CFEFD0E4DEBFCDBF11E0A0E0B1E0E4E07A
S1130120FEE000E00BBF02C007900D92AC31B107B6
S1130130D9F721E0ACE1B1E001C01D92A836B207C5
S1130140E1F74FD35DC65CCF29B1207420935F01E2
S11301500895AC0180917800909179009C013695C6
S1130160279536952795880F991F880F991F280F73
S1130170391F245F3140ADECBCEC33D6969587959E
S11301809695879596958795FC01FF27E855FF4F2F
S11301908591949199279093590180935801CA01AC
S11301A0089560931001709311018093120190934C
S11301B0130160934F017093500180935101909308
S11301C0520108958BE0809381008DE790E0909335
S11301D089008093880082E080936F0010928500EC
S11301E0109284008091100190911101A09112014C
S11301F0B091130180934F0190935001A09351014A
S1130200B09352018FB780688FBF08951F920F92E9
S11302100FB60F9211248F939F93AF93BF93809146
S11302204F0190915001A0915101B0915201019759
S1130230A109B10980934F0190935001A0935101FA
S1130240B0935201892B8A2B8B2B99F481E08093F4
S113025053018091100190911101A0911201B0916C
S1130260130180934F0190935001A0935101B093D7
S11302705201BF91AF919F918F910F900FBE0F903C
S11302801F901895E1ECF0E0808188618083E2ECB6
S1130290F0E080818660808383E38093C4001092C1
S11302A0C5000895E0ECF0E0908195FFFDCF8093C8
S11302B0C6000895E0ECF0E080818823ECF780919B
S11302C0C6000895CF93DF93EC018730910508F0C1
S11302D09FC0FC01EA5BFF4F7BC591E080E0209169
S11302E04E01211101C090E0C92FD82F91C08091F7
S11302F05A018F7D843531F480915401882309F4A7
S1130300CAC011C0813479F480915401811181C132
S113031010925A01109267011092660110926301C3
S113032010926201C4C080915401811172C1A0C0B5
S113033080915A018A30C1F08F7D853431F08091EB
S11303405401882309F4B3C064C18091540181111C
S113035060C1109267011092660110925A011092C6
S11303604E0110924D0184C080915401811151C1FC
S113037010924E0110925A01109263011092620180
S113038010924D01DDC080915A018A3099F08F7D21
S1130390853429F080915401811113C01AC08091D1
S11303A05401811111C01092630110926201C1E0E5
S11303B0D0E00FC080915401811109C0C5E0D0E0A4
S11303C008C0C6E0D0E005C0C6E0D0E002C0C6E088
S11303D0D0E010925A0110924E0110924C0118C0B4
S11303E080915401811115C110925A0141C080912C
S11303F05F01882309F40DC180915401882309F415
S113040008C110925B011092540180E888B908C0B9
S1130410C730D10508F007C1FE01E35BFF4FD8C424
S113042080E888B98091C00085FF03C0809158019D
S113043039DF10925B018AE090E09093670180932A
S1130440660110925A0188E290E0909363018093D0
S11304506201109261011092600110926501109284
S1130460640110924C0110924D01C0E0D0E0F3C041
S11304708091C00088231CF41DDF80935A0180E81A
S113048088B98091C00085FFD8C0809158010ADFE7
S1130490C1E0D0E0E0C080E888B98091C00085FF69
S11304A0CFC080915801FEDEC2E0D0E0D4C04798AE
S11304B080914D01811106C08091C00085FF02C06A
S11304C088ECF0DE8091C0008823BCF4F3DE8093D6
S11304D05A0190ED980F9A3080F420916601309182
S11304E0670120533109A901480F511D5093670139
S11304F04093660181E080934D0180915A018A30D6
S113050011F0853639F48091C00085FF03C08091D5
S11305106601C8DE8091660190916701409708F4F6
S113052092C08091C00085FF02C08CEDBBDE1092AA
S113053067011092660110924D01C3E0D0E08BC0B8
S113054080914C01811106C08091C00085FF02C0DA
S113055089ECA8DE8091C0008823BCF4ABDE8093D4
S11305605A0190ED980F9A3080F4209162013091F5
S1130570630120533109A901480F511D50936301B0
S11305804093620181E080934C0180915A018A304A
S113059011F0853639F48091C00085FF03C0809145
S11305A0620180DE8091620190916301CC9708F42E
S11305B04DC08091C00085FF02C08CED73DE1092A7
S11305C063011092620110924C01C4E0D0E043C078
S11305D0109261011092600180916601909167010F
S11305E02CE3289FA001299F500D112480916201C2
S11305F090916301840F951F289FA001299F500D9E
S11306001124509365014093640181E080935B0160
S113061022C08091C00085FF1CC0479886E942DE55
S1130620C6E0D0E018C080E888B98091C00085FF9A
S113063012C08091580136DE0EC0C1E0D0E00BC07C
S1130640C2E0D0E008C0C3E0D0E005C0C4E0D0E020
S113065002C0C6E0D0E080914E018F5F80934E01CE
S1130660CE01DF91CF910895EAE7F0E08081806EBA
S113067080830895CF92DF92EF92FF926B017C0109
S11306809B01AC0160911C0170911D0180911E01C0
S113069090911F01C5D1882309F440C020E030E0C7
S11306A0A901C701B601BCD1811104C085B5887008
S11306B085BD03C085B5836085BD28E539E344E77E
S11306C05FE3C701B601ACD188231CF48FEF87BD6B
S11306D01CC020E034E244EF56E4C701B601EFD277
S11306E0181614F417BC11C020E030E040E053E4C5
S11306F0C701B601E8D29B01AC0160E074E284EF6B
S11307009AE492D1F9D1615067BD16BCC0921C0124
S1130710D0921D01E0921E01F0921F01FF90EF9014
S1130720DF90CF900895CF93DF93EC0180915B012C
S1130730813021F520916001309161018091640143
S11307409091650128173907C8F047988091C00037
S113075085FF14C086E9A6DD10925B0181E08093D9
S113076054018091640190916501CC9620916001BF
S1130770309161018217930788F019C08091640158
S113078090916501CC9620916001309161018217AE
S1130790930768F480915401813049F46091020117
S11307A07091030180E090E0D8D164DF04C060E080
S11307B070E0CB015FDF809160019091610101964F
S11307C09093610180936001CE01DF91CF910895F0
S11307D081E484BD8BE085BD60E070E0CB014ACF4D
S11307E00895CF93DF93CDB7DEB728970FB6F8946B
S11307F0DEBF0FBECDBF11B88FEF82B984B915B873
S113080087B918B88FEB8AB980E48BB90F2EF4E658
S1130810DF2EF02DC12CB12CA12C5AE040E030E0A9
S113082020E004C0D62EC72EB82EA92E652F742F13
S1130830832F922F2D2D3C2D4B2D5A2DA7D25D2D7C
S11308404C2D3B2D2A2D611571058105910551F71C
S11308500F2EF8EEEF2EF02D0F2EF3E0FF2EF02DDD
S113086000E010E004C0E62EF72E082F192F6D2D9E
S11308707C2D8B2D9A2D2E2D3F2D402F512F86D23E
S1130880DE2CCF2CB02EA12E6115710581059105AA
S113089051F76AE070E080E090E02E2D3F2D402F6C
S11308A0512F74D249015A0164E670E080E090E06F
S11308B02E2D3F2D402F512F69D229013A0168EE88
S11308C073E080E090E02E2D3F2D402F512F5ED21B
S11308D088E0E4E1F1E0DE01119601900D928A9541
S11308E0E1F7E1E4F1E06FEF608381829282A38219
S11308F0B48285829682A782B08684EA90E0928749
S11309008187E6E3F1E0608381829282A382B482EC
S113091085829682A782B08689EA90E09287818751
S1130920EBE2F1E01082418252826382748245825A
S113093056826782708682E691E092878187E0E240
S1130940F1E0608321833283438354832583368398
S11309504783508783E993E09287818793DC84DE21
S113096037DF60E070E0CB0185DE6E2D7F2D802FB8
S1130970912F17DC27DC1092590110925801109224
S113098061011092600180E29EE49093650180937E
S1130990640110925601109255017E0189E0E80E1F
S11309A0F11CDE0111966D01F601019111916F01A7
S11309B0D80115964D915D916D917C911897119682
S11309C08D919D910D90BC91A02D481759076A07F0
S11309D07B0781F4F80180810184F285E02D082EE3
S11309E0000C990B0995D8018C93F8011582168295
S11309F017821086F80185819681A781B0850196BA
S1130A00A11DB11D85839683A783B087CE14DF040F
S1130A1059F6809153018823E1F310925301C1CF19
S1130A20D9D008F481E008950CD00FC107D140F06B
S1130A30FED030F021F45F3F19F0F0C0511139C1FC
S1130A40F3C014D198F39923C9F35523B1F3951B3B
S1130A50550BBB27AA2762177307840738F09F5FDB
S1130A605F4F220F331F441FAA1FA9F333D00E2E4A
S1130A703AF0E0E830D091505040E695001CCAF7B7
S1130A8029D0FE2F27D0660F771F881FBB1F26177C
S1130A9037074807AB07B0E809F0BB0B802DBF014F
S1130AA0FF2793585F4F2AF09E3F510568F0B6C068
S1130AB000C15F3FECF3983EDCF38695779567952C
S1130AC0B795F7959F5FC9F7880F911D9695879500
S1130AD097F90895E1E0660F771F881FBB1F62171F
S1130AE073078407BA0720F0621B730B840BBA0BDD
S1130AF0EE1F88F7E095089504D06894B111D9C029
S1130B000895BCD088F09F5790F0B92F9927B7511A
S1130B10A0F0D1F0660F771F881F991F1AF0BA95BD
S1130B20C9F712C0B13081F0C3D0B1E00895C0C09C
S1130B30672F782F8827B85F39F0B93FCCF38695B3
S1130B4077956795B395D9F73EF490958095709510
S1130B5061957F4F8F4F9F4F0895E89409C097FB8D
S1130B603EF490958095709561957F4F8F4F9F4F80
S1130B709923A9F0F92F96E9BB279395F6958795C4
S1130B8077956795B795F111F8CFFAF4BB0F11F487
S1130B9060FF1BC06F5F7F4F8F4F9F4F16C088232E
S1130BA011F096E911C0772321F09EE8872F762F64
S1130BB005C0662371F096E8862F70E060E02AF0A5
S1130BC09A95660F771F881FDAF7880F9695879591
S1130BD097F90895990F0008550FAA0BE0E8FEEF66
S1130BE016161706E807F907C0F012161306E407ED
S1130BF0F50798F0621B730B840B950B39F40A26E6
S1130C0061F0232B242B252B21F408950A2609F4C3
S1130C10A140A6958FEF811D811D089597F99F67C7
S1130C2080E870E060E008959FEF80EC0895002470
S1130C300A941616170618060906089500240A943D
S1130C4012161306140605060895092E0394000CC3
S1130C5011F4882352F0BB0F40F4BF2B11F460FF52
S1130C6004C06F5F7F4F8F4F9F4F089557FD90587B
S1130C70440F551F59F05F3F71F04795880F97FB5C
S1130C80991F61F09F3F79F0879508951216130616
S1130C901406551FF2CF4695F1DF08C01616170645
S1130CA01806991FF1CF869571056105089408957A
S1130CB0E894BB2766277727CB0197F908958ADF45
S1130CC008F48FEF08950BD0C0CFB1DF28F0B6DF62
S1130CD018F0952309F0A2CFA7CF1124EACFC6DFDD
S1130CE0A0F3959FD1F3950F50E0551F629FF0013B
S1130CF0729FBB27F00DB11D639FAA27F00DB11D94
S1130D00AA1F649F6627B00DA11D661F829F22271C
S1130D10B00DA11D621F739FB00DA11D621F839FA3
S1130D20A00D611D221F749F3327A00D611D231F79
S1130D30849F600D211D822F762F6A2F11249F57C7
S1130D4050408AF0E1F088234AF0EE0FFF1FBB1FEA
S1130D50661F771F881F91505040A9F79E3F510589
S1130D6070F05CCFA6CF5F3FECF3983EDCF3869542
S1130D7077956795B795F795E7959F5FC1F7FE2B34
S1130D80880F911D9695879597F90895A1E21A2EDB
S1130D90AA1BBB1BFD010DC0AA1FBB1FEE1FFF1F1B
S1130DA0A217B307E407F50720F0A21BB30BE40B6B
S1130DB0F50B661F771F881F991F1A9469F76095B2
S1130DC07095809590959B01AC01BD01CF0108956C
S1130DD0EE0FFF1F0024001C0BBE0790F691E02DC0
S1130DE00994A29FB001B39FC001A39F700D811D00
S1130DF01124911DB29F700D811D1124911D089520
S1070E00F894FFCF90
S1130E040501250149015D018801B801ED010B02C9
S10F0E1401000000410136012B01200107
S9030000FC
